:100000000C9431000C9480000C94AC000C94D8003B
:100010000C947E030C94A7030C9443000C944300AF
:100020000C9443000C9443000C9436020C945F0231
:100030000C9443000C9443000C9443000C94430034
:100040000C9443000C9443000C9443000C94430024
:100050000C944300FE02080312031C032603300322
:100060003A0311241FBECFE5D8E0DEBFCDBF20E0AC
:10007000A0E6B0E001C01D92AC37B207E1F70E94E4
:1000800078000C94DF030C940000CF93DF9300D032
:100090001F92CDB7DEB782E08B8380E290E09A8337
:1000A0008983BE016F5F7F4F80E390E00E9404016F
:1000B0000F900F900F90DF91CF910895CF93DF9322
:1000C00000D000D01F92CDB7DEB71D821C8281E028
:1000D0008A831B8283E08983CE0101960E9491026C
:1000E0000F900F900F900F900F90DF91CF91089588
:1000F0000E9445000E945E0080E80E947303FCCFCE
:100100001F920F920FB60F9211242F933F934F938C
:100110005F936F937F938F939F93AF93BF93EF936F
:10012000FF93E0916000F0916100309721F0099514
:100130008AB780648ABFFF91EF91BF91AF919F9181
:100140008F917F916F915F914F913F912F910F9080
:100150000FBE0F901F9018951F920F920FB60F921F
:1001600011242F933F934F935F936F937F938F93BC
:100170009F93AF93BF93EF93FF93E0916200F09151
:100180006300309721F009958AB780688ABFFF9194
:10019000EF91BF91AF919F918F917F916F915F91FF
:1001A0004F913F912F910F900FBE0F901F90189578
:1001B0001F920F920FB60F9211242F933F934F93DC
:1001C0005F936F937F938F939F93AF93BF93EF93BF
:1001D000FF93E0916400F0916500309721F009955C
:1001E0008AB780628ABFFF91EF91BF91AF919F91D3
:1001F0008F917F916F915F914F913F912F910F90D0
:100200000FBE0F901F901895FC01DB012D913C91C2
:100210002031310509F49EC090F42230310509F4F3
:100220003FC020F421303105E9F008952430310534
:1002300009F454C02830310509F46EC00895203403
:10024000310509F4C3C028F42032310509F4A0C0F7
:1002500008952038310509F4D7C02F3F3F4F09F4E6
:10026000F1C00895DB0112968C91813059F018F09D
:10027000823079F0089581818E7F818382818E7FA3
:100280008283089581818E7F8183828181608283D0
:10029000089581818160818382818E7F8283089528
:1002A000DB0112968C91813059F018F0823079F090
:1002B000089581818D7F818382818D7F82830895DE
:1002C00081818D7F81838281826082830895818193
:1002D0008260818382818D7F82830895DB01129603
:1002E0008C91813059F018F0823079F00895818135
:1002F0008B7F818382818B7F8283089581818B7F35
:100300008183828184608283089581818460818376
:1003100082818B7F82830895DB0112968C918130DC
:1003200059F018F0823079F008958181877F8183B8
:100330008281877F828308958181877F8183828103
:100340008860828308958181886081838281877F2C
:1003500082830895DB0112968C91813059F018F058
:10036000823079F0089581818F7E818382818F7EB2
:100370008283089581818F7E8183828180618283DF
:10038000089581818061818382818F7E8283089537
:10039000DB0112968C91813059F018F0823079F09F
:1003A000089581818F7D818382818F7D82830895ED
:1003B00081818F7D818382818062828308958181A2
:1003C0008062818382818F7D82830895DB01129612
:1003D0008C91813059F018F0823079F00895818144
:1003E0008F7B818382818F7B8283089581818F7B44
:1003F0008183828180648283089581818064818386
:1004000082818F7B82830895DB0112968C918130EB
:1004100059F018F0823079F0089581818F778183C7
:1004200082818F778283089581818F778183828112
:1004300080688283089581818068818382818F773B
:1004400082830895DB0112968C91813039F018F087
:10045000823041F0089511821282089511828FEF47
:10046000828308958FEF8183128208951F920F92E5
:100470000FB60F9211242F933F934F935F936F9377
:100480007F938F939F93AF93BF93EF93FF93E091ED
:100490006600F0916700309709F00995FF91EF91A0
:1004A000BF91AF919F918F917F916F915F914F918C
:1004B0003F912F910F900FBE0F901F9018951F9294
:1004C0000F920FB60F9211242F933F934F935F9388
:1004D0006F937F938F939F93AF93BF93EF93FF930C
:1004E000E0916800F0916900309751F00995809192
:1004F0007300909174000196909374008093730040
:10050000FF91EF91BF91AF919F918F917F916F91EB
:100510005F914F913F912F910F900FBE0F901F90C1
:100520001895CF93DF93EC0185E0FE01AEE6B0E0D5
:1005300001900D928A95E1F788818230D1F028F4FC
:10054000882349F0813071F047C0843061F1F0F0C8
:100550008530B1F141C083B78F7B83BF83B7877F7D
:1005600083BF3AC083B78F7B83BF83B7886083BF65
:1005700033C083B7806483BF83B7886083BF83B78A
:10058000806183BF83B7806283BF26C083B78064E6
:1005900083BF83B7886083BF83B78F7E83BF83B7F2
:1005A000806283BF19C083B78F7B83BF83B78860A6
:1005B00083BF83B78F7E83BF83B7806283BF0CC046
:1005C00083B78F7B83BF83B7886083BF83B7806126
:1005D00083BF83B7806283BF8881823018F087B37E
:1005E000886087BBE9818E2F90E08730910508F005
:1005F0004AC0FC01E65DFF4F0C94D90383B78160CC
:1006000083BF83B78D7F83BF83B78B7F83BF3BC09F
:1006100083B78E7F83BF83B7826083BF83B78B7FAF
:1006200083BF31C083B7816083BF83B7826083BFDC
:1006300083B78B7F83BF27C083B78E7F83BF83B78A
:100640008D7F83BF83B7846083BF1DC083B7816004
:1006500083BF83B78D7F83BF83B7846083BF13C09D
:1006600083B78E7F83BF83B7826083BF83B7846085
:1006700083BF09C083B7816083BF83B7826083BFB4
:1006800083B7846083BF89818550823018F487B333
:100690008E7F87BB8A81813019F0823029F007C0B4
:1006A00089B7816089BF03C089B7826089BF8A81A9
:1006B000882319F08FB780688FBF8A81813019F045
:1006C000823041F00DC08B819C81909369008093B2
:1006D000680006C08B819C819093670080936600C0
:1006E000DF91CF91089590916E00933011F48CBFFB
:1006F0000895923011F480958CBF08951F920F9247
:100700000FB60F9211242F933F934F935F936F93E4
:100710007F938F939F93AF93BF93EF93FF93E0915A
:100720006A00F0916B00309709F00995FF91EF9105
:10073000BF91AF919F918F917F916F915F914F91F9
:100740003F912F910F900FBE0F901F9018951F9201
:100750000F920FB60F9211242F933F934F935F93F5
:100760006F937F938F939F93AF93BF93EF93FF9379
:10077000E0916C00F0916D00309751F009958091F7
:100780007A0090917B00019690937B0080937A0091
:10079000FF91EF91BF91AF919F918F917F916F9159
:1007A0005F914F913F912F910F900FBE0F901F902F
:1007B0001895EE0FFF1F0590F491E02D0994F89421
:0207C000FFCF69
:00000001FF
