:100000000C942A000C9495000C94C1000C94ED0003
:100010000C948D030C94B6030C943C000C943C009F
:100020000C943C000C943C000C943B030C94640333
:100030000C943C000C943C000C943C000C943C0050
:100040000C943C000C943C000C943C000C943C0040
:100050000C943C0011241FBECFE5D8E0DEBFCDBF1D
:1000600020E0A0E6B0E001C01D92AE36B207E1F795
:100070000E944E000C94DF030C94000060E280E3C9
:1000800090E00E94CE0260E480E390E00E94CE0205
:1000900060E880E390E00E94CE020895CF93DF9362
:1000A000CDB7DEB72B970FB6F894DEBF0FBECDBF2E
:1000B00082E08B8380E290E09A838983BE016F5F48
:1000C0007F4F80E390E00E949C0180E490E09A835F
:1000D0008983BE016F5F7F4F80E390E00E949C01A7
:1000E00080E890E09A838983BE016F5F7F4F80E351
:1000F00090E00E949C011E8284E090E09D838C83AE
:10010000BE016C5F7F4F80E390E00E949C0181E024
:1001100090E098878F8389878EE390E09B878A871A
:10012000CE0107960E941901FFCF1F920F920FB6C2
:100130000F9211242F933F934F935F936F937F936D
:100140008F939F93AF93BF93EF93FF93E0916000E2
:10015000F0916100309721F009958AB780648ABFD9
:10016000FF91EF91BF91AF919F918F917F916F918F
:100170005F914F913F912F910F900FBE0F901F9065
:1001800018951F920F920FB60F9211242F933F9341
:100190004F935F936F937F938F939F93AF93BF938F
:1001A000EF93FF93E0916200F0916300309721F0AC
:1001B00009958AB780688ABFFF91EF91BF91AF918F
:1001C0009F918F917F916F915F914F913F912F916F
:1001D0000F900FBE0F901F9018951F920F920FB6A1
:1001E0000F9211242F933F934F935F936F937F93BD
:1001F0008F939F93AF93BF93EF93FF93E09164002E
:10020000F0916500309721F009958AB780628ABF26
:10021000FF91EF91BF91AF919F918F917F916F91DE
:100220005F914F913F912F910F900FBE0F901F90B4
:100230001895FC019FB790689FBF808191818230A3
:100240009105A9F18330910509F45FC0019709F088
:1002500072C08BB780648BBF83819481909361005F
:100260008093600082818130D9F098F0823019F05B
:10027000833041F0089585B78E7F85BF85B78D7F28
:1002800085BF089585B7816085BF85B78D7F85BFA0
:10029000089585B78E7F85BF85B7826085BF089535
:1002A00085B78E7F85BF85B7826085BF08958381BE
:1002B000948190936300809362008BB780688BBFBA
:1002C00082818130D9F098F0823019F0833041F08A
:1002D000089585B78B7F85BF85B7877F85BF0895D4
:1002E00085B7846085BF85B7877F85BF089585B74B
:1002F0008B7F85BF85B7886085BF089585B78B7F65
:1003000085BF85B7886085BF089583819481909368
:100310006500809364008BB780628BBF82818823E5
:1003200019F0813029F0089584B78F7B84BF089538
:1003300084B7806484BF0895FC01DB012D913C915A
:100340002031310509F49EC090F42230310509F4C2
:100350003FC020F421303105E9F008952430310503
:1003600009F454C02830310509F46EC008952034D2
:10037000310509F4C3C028F42032310509F4A0C0C6
:1003800008952038310509F4D7C02F3F3F4F09F4B5
:10039000F1C00895DB0112968C91813059F018F06C
:1003A000823079F0089581818E7F818382818E7F72
:1003B0008283089581818E7F81838281816082839F
:1003C000089581818160818382818E7F82830895F7
:1003D000DB0112968C91813059F018F0823079F05F
:1003E000089581818D7F818382818D7F82830895AD
:1003F00081818D7F81838281826082830895818162
:100400008260818382818D7F82830895DB011296D1
:100410008C91813059F018F0823079F00895818103
:100420008B7F818382818B7F8283089581818B7F03
:100430008183828184608283089581818460818345
:1004400082818B7F82830895DB0112968C918130AB
:1004500059F018F0823079F008958181877F818387
:100460008281877F828308958181877F81838281D2
:100470008860828308958181886081838281877FFB
:1004800082830895DB0112968C91813059F018F027
:10049000823079F0089581818F7E818382818F7E81
:1004A0008283089581818F7E8183828180618283AE
:1004B000089581818061818382818F7E8283089506
:1004C000DB0112968C91813059F018F0823079F06E
:1004D000089581818F7D818382818F7D82830895BC
:1004E00081818F7D81838281806282830895818171
:1004F0008062818382818F7D82830895DB011296E1
:100500008C91813059F018F0823079F00895818112
:100510008F7B818382818F7B8283089581818F7B12
:100520008183828180648283089581818064818354
:1005300082818F7B82830895DB0112968C918130BA
:1005400059F018F0823079F0089581818F77818396
:1005500082818F778283089581818F7781838281E1
:1005600080688283089581818068818382818F770A
:1005700082830895DB0112968C91813039F018F056
:10058000823041F0089511821282089511828FEF16
:10059000828308958FEF818312820895FC01683071
:1005A000A1F140F46230E1F0643021F1613009F0F2
:1005B00061C00DC06032F1F118F4603189F1089525
:1005C000603409F442C0603809F44AC00895828159
:1005D000817091E08927928180FB90F99283089540
:1005E00082818695817091E08927928180FB91F9C3
:1005F00092830895828182FB992790F981E089276F
:10060000928180FB92F992830895828183FB9927DE
:1006100090F981E08927928180FB93F99283089574
:1006200082818295817091E08927928180FB94F983
:1006300092830895828185FB992790F981E089272B
:10064000928180FB95F992830895828186FB992798
:1006500090F981E08927928180FB96F99283089531
:10066000828187FB992790F981E08927928180FB1D
:1006700097F9928308951F920F920FB60F9211244B
:100680002F933F934F935F936F937F938F939F939A
:10069000AF93BF93EF93FF93E0916600F0916700F3
:1006A000309709F00995FF91EF91BF91AF919F911C
:1006B0008F917F916F915F914F913F912F910F900B
:1006C0000FBE0F901F9018951F920F920FB60F92AA
:1006D00011242F933F934F935F936F937F938F9347
:1006E0009F93AF93BF93EF93FF93E0916800F091D6
:1006F0006900309709F00995FF91EF91BF91AF9193
:100700009F918F917F916F915F914F913F912F9129
:100710000F900FBE0F901F9018951F920F920FB65B
:100720000F9211242F933F934F935F936F937F9377
:100730008F939F93AF93BF93EF93FF93E0916A00E2
:10074000F0916B00309709F00995FF91EF91BF91FF
:10075000AF919F918F917F916F915F914F913F9159
:100760002F910F900FBE0F901F9018951F920F9210
:100770000FB60F9211242F933F934F935F936F9374
:100780007F938F939F93AF93BF93EF93FF93E091EA
:100790006C00F0916D00309709F00995FF91EF9191
:1007A000BF91AF919F918F917F916F915F914F9189
:1007B0003F912F910F900FBE0F901F901895F894B6
:0207C000FFCF69
:00000001FF
